{
  "_format": "hh-sol-artifact-1",
  "contractName": "AINFTVault",
  "sourceName": "smart-contracts/AINFTVault.sol",
  "abi": [
    {
      "inputs": [
        {
          "internalType": "address",
          "name": "_revenueWallet",
          "type": "address"
        }
      ],
      "stateMutability": "nonpayable",
      "type": "constructor"
    },
    {
      "anonymous": false,
      "inputs": [
        {
          "indexed": true,
          "internalType": "uint256",
          "name": "id",
          "type": "uint256"
        },
        {
          "indexed": false,
          "internalType": "string",
          "name": "metadataURI",
          "type": "string"
        },
        {
          "indexed": false,
          "internalType": "uint256",
          "name": "price",
          "type": "uint256"
        }
      ],
      "name": "NFTMinted",
      "type": "event"
    },
    {
      "anonymous": false,
      "inputs": [
        {
          "indexed": true,
          "internalType": "uint256",
          "name": "id",
          "type": "uint256"
        },
        {
          "indexed": false,
          "internalType": "address",
          "name": "buyer",
          "type": "address"
        },
        {
          "indexed": false,
          "internalType": "uint256",
          "name": "price",
          "type": "uint256"
        }
      ],
      "name": "NFTSold",
      "type": "event"
    },
    {
      "inputs": [],
      "name": "REVENUE_PERCENTAGE",
      "outputs": [
        {
          "internalType": "uint256",
          "name": "",
          "type": "uint256"
        }
      ],
      "stateMutability": "view",
      "type": "function"
    },
    {
      "inputs": [
        {
          "internalType": "uint256",
          "name": "nftId",
          "type": "uint256"
        }
      ],
      "name": "buyNFT",
      "outputs": [],
      "stateMutability": "payable",
      "type": "function"
    },
    {
      "inputs": [
        {
          "internalType": "uint256",
          "name": "nftId",
          "type": "uint256"
        },
        {
          "internalType": "string",
          "name": "newMetadata",
          "type": "string"
        }
      ],
      "name": "evolveNFT",
      "outputs": [],
      "stateMutability": "payable",
      "type": "function"
    },
    {
      "inputs": [],
      "name": "minimumPrice",
      "outputs": [
        {
          "internalType": "uint256",
          "name": "",
          "type": "uint256"
        }
      ],
      "stateMutability": "view",
      "type": "function"
    },
    {
      "inputs": [
        {
          "internalType": "string",
          "name": "metadataURI",
          "type": "string"
        },
        {
          "internalType": "uint256",
          "name": "initialPrice",
          "type": "uint256"
        }
      ],
      "name": "mintNFT",
      "outputs": [],
      "stateMutability": "nonpayable",
      "type": "function"
    },
    {
      "inputs": [
        {
          "internalType": "uint256",
          "name": "",
          "type": "uint256"
        }
      ],
      "name": "nfts",
      "outputs": [
        {
          "internalType": "string",
          "name": "metadataURI",
          "type": "string"
        },
        {
          "internalType": "uint256",
          "name": "price",
          "type": "uint256"
        },
        {
          "internalType": "address",
          "name": "owner",
          "type": "address"
        }
      ],
      "stateMutability": "view",
      "type": "function"
    },
    {
      "inputs": [],
      "name": "reinvestRevenue",
      "outputs": [],
      "stateMutability": "nonpayable",
      "type": "function"
    },
    {
      "inputs": [],
      "name": "revenueWallet",
      "outputs": [
        {
          "internalType": "address",
          "name": "",
          "type": "address"
        }
      ],
      "stateMutability": "view",
      "type": "function"
    },
    {
      "inputs": [
        {
          "internalType": "uint256",
          "name": "_minimumPrice",
          "type": "uint256"
        }
      ],
      "name": "setMinimumPrice",
      "outputs": [],
      "stateMutability": "nonpayable",
      "type": "function"
    },
    {
      "inputs": [],
      "name": "totalNFTs",
      "outputs": [
        {
          "internalType": "uint256",
          "name": "",
          "type": "uint256"
        }
      ],
      "stateMutability": "view",
      "type": "function"
    },
    {
      "inputs": [],
      "name": "totalRevenue",
      "outputs": [
        {
          "internalType": "uint256",
          "name": "",
          "type": "uint256"
        }
      ],
      "stateMutability": "view",
      "type": "function"
    },
    {
      "inputs": [],
      "name": "totalTransactions",
      "outputs": [
        {
          "internalType": "uint256",
          "name": "",
          "type": "uint256"
        }
      ],
      "stateMutability": "view",
      "type": "function"
    }
  ],
  "bytecode": "0x6080604052662386f26fc100006003553480156200001c57600080fd5b5060405162001b6638038062001b668339818101604052810190620000429190620000a9565b600160008190555080600260006101000a81548173ffffffffffffffffffffffffffffffffffffffff021916908373ffffffffffffffffffffffffffffffffffffffff1602179055505062000123565b600081519050620000a38162000109565b92915050565b600060208284031215620000bc57600080fd5b6000620000cc8482850162000092565b91505092915050565b6000620000e282620000e9565b9050919050565b600073ffffffffffffffffffffffffffffffffffffffff82169050919050565b6200011481620000d5565b81146200012057600080fd5b50565b611a3380620001336000396000f3fe6080604052600436106100a75760003560e01c806351ed82881161006457806351ed8288146101ac5780635afa3a72146101c85780637f386b6c146101f1578063b9a600381461021c578063bf2d9e0b14610247578063cc9f9ef714610272576100a7565b80630d0e96da146100ac578063110282db146100d757806325cea97614610102578063265aa6211461012b57806342bb09821461016a5780634447842514610181575b600080fd5b3480156100b857600080fd5b506100c161028e565b6040516100ce9190611668565b60405180910390f35b3480156100e357600080fd5b506100ec610294565b6040516100f99190611668565b60405180910390f35b34801561010e57600080fd5b50610129600480360381019061012491906110bb565b610299565b005b34801561013757600080fd5b50610152600480360381019061014d91906110bb565b610333565b6040516101619392919061150a565b60405180910390f35b34801561017657600080fd5b5061017f610405565b005b34801561018d57600080fd5b50610196610743565b6040516101a39190611496565b60405180910390f35b6101c660048036038101906101c191906110bb565b610769565b005b3480156101d457600080fd5b506101ef60048036038101906101ea9190611067565b610adc565b005b3480156101fd57600080fd5b50610206610c30565b6040516102139190611668565b60405180910390f35b34801561022857600080fd5b50610231610c36565b60405161023e9190611668565b60405180910390f35b34801561025357600080fd5b5061025c610c3c565b6040516102699190611668565b60405180910390f35b61028c600480360381019061028791906110e4565b610c42565b005b60015481565b605a81565b600260009054906101000a900473ffffffffffffffffffffffffffffffffffffffff1673ffffffffffffffffffffffffffffffffffffffff163373ffffffffffffffffffffffffffffffffffffffff1614610329576040517f08c379a000000000000000000000000000000000000000000000000000000000815260040161032090611588565b60405180910390fd5b8060038190555050565b60066020528060005260406000206000915090508060000180546103569061189e565b80601f01602080910402602001604051908101604052809291908181526020018280546103829061189e565b80156103cf5780601f106103a4576101008083540402835291602001916103cf565b820191906000526020600020905b8154815290600101906020018083116103b257829003601f168201915b5050505050908060010154908060020160009054906101000a900473ffffffffffffffffffffffffffffffffffffffff16905083565b61040d610eee565b600260009054906101000a900473ffffffffffffffffffffffffffffffffffffffff1673ffffffffffffffffffffffffffffffffffffffff163373ffffffffffffffffffffffffffffffffffffffff161461049d576040517f08c379a000000000000000000000000000000000000000000000000000000000815260040161049490611608565b60405180910390fd5b60004790506000600a826104b19190611761565b9050600a6003546104c29190611792565b82101580156104d357506003548110155b1561062c576105176040518060400160405280601b81526020017f41492d67656e657261746564207265696e766573746564204e4654000000000081525082610adc565b600047905060008111156105f5576000600260009054906101000a900473ffffffffffffffffffffffffffffffffffffffff1673ffffffffffffffffffffffffffffffffffffffff168260405161056d90611481565b60006040518083038185875af1925050503d80600081146105aa576040519150601f19603f3d011682016040523d82523d6000602084013e6105af565b606091505b50509050806105f3576040517f08c379a00000000000000000000000000000000000000000000000000000000081526004016105ea906115c8565b60405180910390fd5b505b8060046000828254610607919061170b565b9250508190555060056000815480929190610621906118d0565b919050555050610737565b6000821115610736576000600260009054906101000a900473ffffffffffffffffffffffffffffffffffffffff1673ffffffffffffffffffffffffffffffffffffffff168360405161067d90611481565b60006040518083038185875af1925050503d80600081146106ba576040519150601f19603f3d011682016040523d82523d6000602084013e6106bf565b606091505b5050905080610703576040517f08c379a00000000000000000000000000000000000000000000000000000000081526004016106fa906115c8565b60405180910390fd5b8260046000828254610715919061170b565b925050819055506005600081548092919061072f906118d0565b9190505550505b5b5050610741610f3d565b565b600260009054906101000a900473ffffffffffffffffffffffffffffffffffffffff1681565b610771610eee565b600060066000838152602001908152602001600020905080600101543410156107cf576040517f08c379a00000000000000000000000000000000000000000000000000000000081526004016107c6906115a8565b60405180910390fd5b600354341015610814576040517f08c379a000000000000000000000000000000000000000000000000000000000815260040161080b90611568565b60405180910390fd5b60006064605a346108259190611792565b61082f9190611761565b90506000813461083f91906117ec565b905060008360020160009054906101000a900473ffffffffffffffffffffffffffffffffffffffff16905060008173ffffffffffffffffffffffffffffffffffffffff168360405161089090611481565b60006040518083038185875af1925050503d80600081146108cd576040519150601f19603f3d011682016040523d82523d6000602084013e6108d2565b606091505b5050905080610916576040517f08c379a000000000000000000000000000000000000000000000000000000000815260040161090d906115e8565b60405180910390fd5b6000600260009054906101000a900473ffffffffffffffffffffffffffffffffffffffff16905060008173ffffffffffffffffffffffffffffffffffffffff168660405161096390611481565b60006040518083038185875af1925050503d80600081146109a0576040519150601f19603f3d011682016040523d82523d6000602084013e6109a5565b606091505b50509050806109e9576040517f08c379a00000000000000000000000000000000000000000000000000000000081526004016109e0906115c8565b60405180910390fd5b85600460008282546109fb919061170b565b9250508190555060056000815480929190610a15906118d0565b9190505550338760020160006101000a81548173ffffffffffffffffffffffffffffffffffffffff021916908373ffffffffffffffffffffffffffffffffffffffff1602179055506064606e34610a6c9190611792565b610a769190611761565b600660008a815260200190815260200160002060010181905550877f6329e40c0365262ebbff5ca819385c2b9713dcaa050ed07866d72c441395699a3334604051610ac29291906114b1565b60405180910390a250505050505050610ad9610f3d565b50565b600354811015610b21576040517f08c379a0000000000000000000000000000000000000000000000000000000008152600401610b1890611568565b60405180910390fd5b600060016000815480929190610b36906118d0565b91905055905060405180606001604052808481526020018381526020013373ffffffffffffffffffffffffffffffffffffffff16815250600660008381526020019081526020016000206000820151816000019080519060200190610b9c929190610f47565b506020820151816001015560408201518160020160006101000a81548173ffffffffffffffffffffffffffffffffffffffff021916908373ffffffffffffffffffffffffffffffffffffffff160217905550905050807f4233f6d9830a7c4318a0d56fef7fc6e9a720f4ced725374dbf5a40de3d01f6068484604051610c239291906114da565b60405180910390a2505050565b60035481565b60055481565b60045481565b610c4a610eee565b60006006600084815260200190815260200160002090503373ffffffffffffffffffffffffffffffffffffffff168160020160009054906101000a900473ffffffffffffffffffffffffffffffffffffffff1673ffffffffffffffffffffffffffffffffffffffff1614610cf3576040517f08c379a0000000000000000000000000000000000000000000000000000000008152600401610cea90611648565b60405180910390fd5b600354341015610d38576040517f08c379a0000000000000000000000000000000000000000000000000000000008152600401610d2f90611548565b60405180910390fd5b60006064605a34610d499190611792565b610d539190611761565b905060008134610d6391906117ec565b90506000600260009054906101000a900473ffffffffffffffffffffffffffffffffffffffff16905060008173ffffffffffffffffffffffffffffffffffffffff1684604051610db290611481565b60006040518083038185875af1925050503d8060008114610def576040519150601f19603f3d011682016040523d82523d6000602084013e610df4565b606091505b5050905080610e38576040517f08c379a0000000000000000000000000000000000000000000000000000000008152600401610e2f906115c8565b60405180910390fd5b8360046000828254610e4a919061170b565b9250508190555060056000815480929190610e64906118d0565b919050555085856000019080519060200190610e81929190610f47565b506064606e34610e919190611792565b610e9b9190611761565b8560010181905550867f4233f6d9830a7c4318a0d56fef7fc6e9a720f4ced725374dbf5a40de3d01f6068734604051610ed59291906114da565b60405180910390a25050505050610eea610f3d565b5050565b600160005414610f33576040517f08c379a0000000000000000000000000000000000000000000000000000000008152600401610f2a90611628565b60405180910390fd5b6002600081905550565b6001600081905550565b828054610f539061189e565b90600052602060002090601f016020900481019282610f755760008555610fbc565b82601f10610f8e57805160ff1916838001178555610fbc565b82800160010185558215610fbc579182015b82811115610fbb578251825591602001919060010190610fa0565b5b509050610fc99190610fcd565b5090565b5b80821115610fe6576000816000905550600101610fce565b5090565b6000610ffd610ff8846116b4565b611683565b90508281526020810184848401111561101557600080fd5b61102084828561185c565b509392505050565b600082601f83011261103957600080fd5b8135611049848260208601610fea565b91505092915050565b600081359050611061816119e6565b92915050565b6000806040838503121561107a57600080fd5b600083013567ffffffffffffffff81111561109457600080fd5b6110a085828601611028565b92505060206110b185828601611052565b9150509250929050565b6000602082840312156110cd57600080fd5b60006110db84828501611052565b91505092915050565b600080604083850312156110f757600080fd5b600061110585828601611052565b925050602083013567ffffffffffffffff81111561112257600080fd5b61112e85828601611028565b9150509250929050565b61114181611820565b82525050565b6000611152826116e4565b61115c81856116fa565b935061116c81856020860161186b565b611175816119d5565b840191505092915050565b600061118d602d836116fa565b91507f45766f6c7574696f6e20636f7374206d757374206265206174206c656173742060008301527f6d696e696d756d207072696365000000000000000000000000000000000000006020830152604082019050919050565b60006111f36024836116fa565b91507f5072696365206d757374206265206174206c65617374206d696e696d756d207060008301527f72696365000000000000000000000000000000000000000000000000000000006020830152604082019050919050565b60006112596029836116fa565b91507f4f6e6c7920726576656e75652077616c6c65742063616e20736574206d696e6960008301527f6d756d20707269636500000000000000000000000000000000000000000000006020830152604082019050919050565b60006112bf6012836116fa565b91507f496e73756666696369656e742066756e647300000000000000000000000000006000830152602082019050919050565b60006112ff6021836116fa565b91507f5472616e7366657220746f20726576656e75652077616c6c6574206661696c6560008301527f64000000000000000000000000000000000000000000000000000000000000006020830152604082019050919050565b60006113656019836116fa565b91507f5472616e7366657220746f2073656c6c6572206661696c6564000000000000006000830152602082019050919050565b60006113a56020836116fa565b91507f4f6e6c7920726576656e75652077616c6c65742063616e207265696e766573746000830152602082019050919050565b60006113e56000836116ef565b9150600082019050919050565b60006113ff601f836116fa565b91507f5265656e7472616e637947756172643a207265656e7472616e742063616c6c006000830152602082019050919050565b600061143f6015836116fa565b91507f4f6e6c79206f776e65722063616e2065766f6c766500000000000000000000006000830152602082019050919050565b61147b81611852565b82525050565b600061148c826113d8565b9150819050919050565b60006020820190506114ab6000830184611138565b92915050565b60006040820190506114c66000830185611138565b6114d36020830184611472565b9392505050565b600060408201905081810360008301526114f48185611147565b90506115036020830184611472565b9392505050565b600060608201905081810360008301526115248186611147565b90506115336020830185611472565b6115406040830184611138565b949350505050565b6000602082019050818103600083015261156181611180565b9050919050565b60006020820190508181036000830152611581816111e6565b9050919050565b600060208201905081810360008301526115a18161124c565b9050919050565b600060208201905081810360008301526115c1816112b2565b9050919050565b600060208201905081810360008301526115e1816112f2565b9050919050565b6000602082019050818103600083015261160181611358565b9050919050565b6000602082019050818103600083015261162181611398565b9050919050565b60006020820190508181036000830152611641816113f2565b9050919050565b6000602082019050818103600083015261166181611432565b9050919050565b600060208201905061167d6000830184611472565b92915050565b6000604051905081810181811067ffffffffffffffff821117156116aa576116a96119a6565b5b8060405250919050565b600067ffffffffffffffff8211156116cf576116ce6119a6565b5b601f19601f8301169050602081019050919050565b600081519050919050565b600081905092915050565b600082825260208201905092915050565b600061171682611852565b915061172183611852565b9250827fffffffffffffffffffffffffffffffffffffffffffffffffffffffffffffffff0382111561175657611755611919565b5b828201905092915050565b600061176c82611852565b915061177783611852565b92508261178757611786611948565b5b828204905092915050565b600061179d82611852565b91506117a883611852565b9250817fffffffffffffffffffffffffffffffffffffffffffffffffffffffffffffffff04831182151516156117e1576117e0611919565b5b828202905092915050565b60006117f782611852565b915061180283611852565b92508282101561181557611814611919565b5b828203905092915050565b600061182b82611832565b9050919050565b600073ffffffffffffffffffffffffffffffffffffffff82169050919050565b6000819050919050565b82818337600083830152505050565b60005b8381101561188957808201518184015260208101905061186e565b83811115611898576000848401525b50505050565b600060028204905060018216806118b657607f821691505b602082108114156118ca576118c9611977565b5b50919050565b60006118db82611852565b91507fffffffffffffffffffffffffffffffffffffffffffffffffffffffffffffffff82141561190e5761190d611919565b5b600182019050919050565b7f4e487b7100000000000000000000000000000000000000000000000000000000600052601160045260246000fd5b7f4e487b7100000000000000000000000000000000000000000000000000000000600052601260045260246000fd5b7f4e487b7100000000000000000000000000000000000000000000000000000000600052602260045260246000fd5b7f4e487b7100000000000000000000000000000000000000000000000000000000600052604160045260246000fd5b6000601f19601f8301169050919050565b6119ef81611852565b81146119fa57600080fd5b5056fea26469706673582212209cd181c07b1812b99872d4f295e9bff43919df311f1307c52c13e3878761af9564736f6c63430008000033",
  "linkReferences": {},
  "deployedLinkReferences": {}
}